{
  "_format": "hh-sol-artifact-1",
  "contractName": "NexusHub",
  "sourceName": "contracts/NexusHub.sol",
  "abi": [
    {
      "inputs": [],
      "stateMutability": "nonpayable",
      "type": "constructor"
    },
    {
      "anonymous": false,
      "inputs": [
        {
          "indexed": true,
          "internalType": "address",
          "name": "owner",
          "type": "address"
        },
        {
          "indexed": true,
          "internalType": "address",
          "name": "approved",
          "type": "address"
        },
        {
          "indexed": true,
          "internalType": "uint256",
          "name": "tokenId",
          "type": "uint256"
        }
      ],
      "name": "Approval",
      "type": "event"
    },
    {
      "anonymous": false,
      "inputs": [
        {
          "indexed": true,
          "internalType": "address",
          "name": "owner",
          "type": "address"
        },
        {
          "indexed": true,
          "internalType": "address",
          "name": "operator",
          "type": "address"
        },
        {
          "indexed": false,
          "internalType": "bool",
          "name": "approved",
          "type": "bool"
        }
      ],
      "name": "ApprovalForAll",
      "type": "event"
    },
    {
      "anonymous": false,
      "inputs": [
        {
          "indexed": false,
          "internalType": "uint256",
          "name": "_fromTokenId",
          "type": "uint256"
        },
        {
          "indexed": false,
          "internalType": "uint256",
          "name": "_toTokenId",
          "type": "uint256"
        }
      ],
      "name": "BatchMetadataUpdate",
      "type": "event"
    },
    {
      "anonymous": false,
      "inputs": [
        {
          "indexed": false,
          "internalType": "uint256",
          "name": "_tokenId",
          "type": "uint256"
        }
      ],
      "name": "MetadataUpdate",
      "type": "event"
    },
    {
      "anonymous": false,
      "inputs": [
        {
          "indexed": false,
          "internalType": "uint256",
          "name": "id",
          "type": "uint256"
        },
        {
          "indexed": false,
          "internalType": "string",
          "name": "hash",
          "type": "string"
        },
        {
          "indexed": false,
          "internalType": "uint256",
          "name": "tipAmount",
          "type": "uint256"
        },
        {
          "indexed": false,
          "internalType": "address payable",
          "name": "author",
          "type": "address"
        }
      ],
      "name": "PostCreated",
      "type": "event"
    },
    {
      "anonymous": false,
      "inputs": [
        {
          "indexed": false,
          "internalType": "uint256",
          "name": "id",
          "type": "uint256"
        },
        {
          "indexed": false,
          "internalType": "string",
          "name": "hash",
          "type": "string"
        },
        {
          "indexed": false,
          "internalType": "uint256",
          "name": "tipAmount",
          "type": "uint256"
        },
        {
          "indexed": false,
          "internalType": "address payable",
          "name": "author",
          "type": "address"
        }
      ],
      "name": "PostTipped",
      "type": "event"
    },
    {
      "anonymous": false,
      "inputs": [
        {
          "indexed": true,
          "internalType": "address",
          "name": "from",
          "type": "address"
        },
        {
          "indexed": true,
          "internalType": "address",
          "name": "to",
          "type": "address"
        },
        {
          "indexed": true,
          "internalType": "uint256",
          "name": "tokenId",
          "type": "uint256"
        }
      ],
      "name": "Transfer",
      "type": "event"
    },
    {
      "inputs": [
        {
          "internalType": "address",
          "name": "to",
          "type": "address"
        },
        {
          "internalType": "uint256",
          "name": "tokenId",
          "type": "uint256"
        }
      ],
      "name": "approve",
      "outputs": [],
      "stateMutability": "nonpayable",
      "type": "function"
    },
    {
      "inputs": [
        {
          "internalType": "address",
          "name": "owner",
          "type": "address"
        }
      ],
      "name": "balanceOf",
      "outputs": [
        {
          "internalType": "uint256",
          "name": "",
          "type": "uint256"
        }
      ],
      "stateMutability": "view",
      "type": "function"
    },
    {
      "inputs": [],
      "name": "getAllPosts",
      "outputs": [
        {
          "components": [
            {
              "internalType": "uint256",
              "name": "id",
              "type": "uint256"
            },
            {
              "internalType": "string",
              "name": "hash",
              "type": "string"
            },
            {
              "internalType": "uint256",
              "name": "tipAmount",
              "type": "uint256"
            },
            {
              "internalType": "address payable",
              "name": "author",
              "type": "address"
            }
          ],
          "internalType": "struct NexusHub.Post[]",
          "name": "_posts",
          "type": "tuple[]"
        }
      ],
      "stateMutability": "view",
      "type": "function"
    },
    {
      "inputs": [
        {
          "internalType": "uint256",
          "name": "tokenId",
          "type": "uint256"
        }
      ],
      "name": "getApproved",
      "outputs": [
        {
          "internalType": "address",
          "name": "",
          "type": "address"
        }
      ],
      "stateMutability": "view",
      "type": "function"
    },
    {
      "inputs": [],
      "name": "getMyNfts",
      "outputs": [
        {
          "internalType": "uint256[]",
          "name": "_ids",
          "type": "uint256[]"
        }
      ],
      "stateMutability": "view",
      "type": "function"
    },
    {
      "inputs": [
        {
          "internalType": "address",
          "name": "owner",
          "type": "address"
        },
        {
          "internalType": "address",
          "name": "operator",
          "type": "address"
        }
      ],
      "name": "isApprovedForAll",
      "outputs": [
        {
          "internalType": "bool",
          "name": "",
          "type": "bool"
        }
      ],
      "stateMutability": "view",
      "type": "function"
    },
    {
      "inputs": [
        {
          "internalType": "string",
          "name": "_tokenURI",
          "type": "string"
        }
      ],
      "name": "mint",
      "outputs": [
        {
          "internalType": "uint256",
          "name": "",
          "type": "uint256"
        }
      ],
      "stateMutability": "nonpayable",
      "type": "function"
    },
    {
      "inputs": [],
      "name": "name",
      "outputs": [
        {
          "internalType": "string",
          "name": "",
          "type": "string"
        }
      ],
      "stateMutability": "view",
      "type": "function"
    },
    {
      "inputs": [
        {
          "internalType": "uint256",
          "name": "tokenId",
          "type": "uint256"
        }
      ],
      "name": "ownerOf",
      "outputs": [
        {
          "internalType": "address",
          "name": "",
          "type": "address"
        }
      ],
      "stateMutability": "view",
      "type": "function"
    },
    {
      "inputs": [],
      "name": "postCount",
      "outputs": [
        {
          "internalType": "uint256",
          "name": "",
          "type": "uint256"
        }
      ],
      "stateMutability": "view",
      "type": "function"
    },
    {
      "inputs": [
        {
          "internalType": "uint256",
          "name": "",
          "type": "uint256"
        }
      ],
      "name": "posts",
      "outputs": [
        {
          "internalType": "uint256",
          "name": "id",
          "type": "uint256"
        },
        {
          "internalType": "string",
          "name": "hash",
          "type": "string"
        },
        {
          "internalType": "uint256",
          "name": "tipAmount",
          "type": "uint256"
        },
        {
          "internalType": "address payable",
          "name": "author",
          "type": "address"
        }
      ],
      "stateMutability": "view",
      "type": "function"
    },
    {
      "inputs": [
        {
          "internalType": "address",
          "name": "",
          "type": "address"
        }
      ],
      "name": "profiles",
      "outputs": [
        {
          "internalType": "uint256",
          "name": "",
          "type": "uint256"
        }
      ],
      "stateMutability": "view",
      "type": "function"
    },
    {
      "inputs": [
        {
          "internalType": "address",
          "name": "from",
          "type": "address"
        },
        {
          "internalType": "address",
          "name": "to",
          "type": "address"
        },
        {
          "internalType": "uint256",
          "name": "tokenId",
          "type": "uint256"
        }
      ],
      "name": "safeTransferFrom",
      "outputs": [],
      "stateMutability": "nonpayable",
      "type": "function"
    },
    {
      "inputs": [
        {
          "internalType": "address",
          "name": "from",
          "type": "address"
        },
        {
          "internalType": "address",
          "name": "to",
          "type": "address"
        },
        {
          "internalType": "uint256",
          "name": "tokenId",
          "type": "uint256"
        },
        {
          "internalType": "bytes",
          "name": "data",
          "type": "bytes"
        }
      ],
      "name": "safeTransferFrom",
      "outputs": [],
      "stateMutability": "nonpayable",
      "type": "function"
    },
    {
      "inputs": [
        {
          "internalType": "address",
          "name": "operator",
          "type": "address"
        },
        {
          "internalType": "bool",
          "name": "approved",
          "type": "bool"
        }
      ],
      "name": "setApprovalForAll",
      "outputs": [],
      "stateMutability": "nonpayable",
      "type": "function"
    },
    {
      "inputs": [
        {
          "internalType": "uint256",
          "name": "_id",
          "type": "uint256"
        }
      ],
      "name": "setProfile",
      "outputs": [],
      "stateMutability": "nonpayable",
      "type": "function"
    },
    {
      "inputs": [
        {
          "internalType": "bytes4",
          "name": "interfaceId",
          "type": "bytes4"
        }
      ],
      "name": "supportsInterface",
      "outputs": [
        {
          "internalType": "bool",
          "name": "",
          "type": "bool"
        }
      ],
      "stateMutability": "view",
      "type": "function"
    },
    {
      "inputs": [],
      "name": "symbol",
      "outputs": [
        {
          "internalType": "string",
          "name": "",
          "type": "string"
        }
      ],
      "stateMutability": "view",
      "type": "function"
    },
    {
      "inputs": [
        {
          "internalType": "uint256",
          "name": "_id",
          "type": "uint256"
        }
      ],
      "name": "tipPostOwner",
      "outputs": [],
      "stateMutability": "payable",
      "type": "function"
    },
    {
      "inputs": [],
      "name": "tokenCount",
      "outputs": [
        {
          "internalType": "uint256",
          "name": "",
          "type": "uint256"
        }
      ],
      "stateMutability": "view",
      "type": "function"
    },
    {
      "inputs": [
        {
          "internalType": "uint256",
          "name": "tokenId",
          "type": "uint256"
        }
      ],
      "name": "tokenURI",
      "outputs": [
        {
          "internalType": "string",
          "name": "",
          "type": "string"
        }
      ],
      "stateMutability": "view",
      "type": "function"
    },
    {
      "inputs": [
        {
          "internalType": "address",
          "name": "from",
          "type": "address"
        },
        {
          "internalType": "address",
          "name": "to",
          "type": "address"
        },
        {
          "internalType": "uint256",
          "name": "tokenId",
          "type": "uint256"
        }
      ],
      "name": "transferFrom",
      "outputs": [],
      "stateMutability": "nonpayable",
      "type": "function"
    },
    {
      "inputs": [
        {
          "internalType": "string",
          "name": "_postHash",
          "type": "string"
        }
      ],
      "name": "uploadPost",
      "outputs": [],
      "stateMutability": "nonpayable",
      "type": "function"
    }
  ],
  "bytecode": "0x60806040523480156200001157600080fd5b506040518060400160405280600881526020017f4e657875734875620000000000000000000000000000000000000000000000008152506040518060400160405280600481526020017f4441505000000000000000000000000000000000000000000000000000000000815250816000908051906020019062000096929190620000b8565b508060019080519060200190620000af929190620000b8565b505050620001cd565b828054620000c69062000168565b90600052602060002090601f016020900481019282620000ea576000855562000136565b82601f106200010557805160ff191683800117855562000136565b8280016001018555821562000136579182015b828111156200013557825182559160200191906001019062000118565b5b50905062000145919062000149565b5090565b5b80821115620001645760008160009055506001016200014a565b5090565b600060028204905060018216806200018157607f821691505b602082108114156200019857620001976200019e565b5b50919050565b7f4e487b7100000000000000000000000000000000000000000000000000000000600052602260045260246000fd5b613d6c80620001dd6000396000f3fe6080604052600436106101405760003560e01c806370a08231116100b6578063bbe156271161006f578063bbe1562714610471578063bdd05adb146104ae578063c87b56dd146104d7578063d6313c0614610514578063d85d3d2714610530578063e985e9c51461056d57610140565b806370a082311461036357806385d3cb37146103a057806395d89b41146103c95780639f181b5e146103f4578063a22cb4651461041f578063b88d4fde1461044857610140565b80630b1e7f83116101085780630b1e7f831461023e57806317906c2e1461027e57806323b872dd146102a957806330561100146102d257806342842e0e146102fd5780636352211e1461032657610140565b806301ffc9a714610145578063047b07bf1461018257806306fdde03146101ad578063081812fc146101d8578063095ea7b314610215575b600080fd5b34801561015157600080fd5b5061016c60048036038101906101679190612b6f565b6105aa565b60405161017991906131f4565b60405180910390f35b34801561018e57600080fd5b5061019761060b565b6040516101a491906131d2565b60405180910390f35b3480156101b957600080fd5b506101c261075b565b6040516101cf919061320f565b60405180910390f35b3480156101e457600080fd5b506101ff60048036038101906101fa9190612c02565b6107ed565b60405161020c9190613149565b60405180910390f35b34801561022157600080fd5b5061023c60048036038101906102379190612b33565b610833565b005b34801561024a57600080fd5b5061026560048036038101906102609190612c02565b61094b565b60405161027594939291906134b8565b60405180910390f35b34801561028a57600080fd5b50610293610a23565b6040516102a09190613451565b60405180910390f35b3480156102b557600080fd5b506102d060048036038101906102cb9190612a2d565b610a29565b005b3480156102de57600080fd5b506102e7610a89565b6040516102f491906131b0565b60405180910390f35b34801561030957600080fd5b50610324600480360381019061031f9190612a2d565b610c96565b005b34801561033257600080fd5b5061034d60048036038101906103489190612c02565b610cb6565b60405161035a9190613149565b60405180910390f35b34801561036f57600080fd5b5061038a600480360381019061038591906129c8565b610d3d565b6040516103979190613451565b60405180910390f35b3480156103ac57600080fd5b506103c760048036038101906103c29190612c02565b610df5565b005b3480156103d557600080fd5b506103de610eb2565b6040516103eb919061320f565b60405180910390f35b34801561040057600080fd5b50610409610f44565b6040516104169190613451565b60405180910390f35b34801561042b57600080fd5b5061044660048036038101906104419190612af7565b610f4a565b005b34801561045457600080fd5b5061046f600480360381019061046a9190612a7c565b610f60565b005b34801561047d57600080fd5b50610498600480360381019061049391906129c8565b610fc2565b6040516104a59190613451565b60405180910390f35b3480156104ba57600080fd5b506104d560048036038101906104d09190612bc1565b610fda565b005b3480156104e357600080fd5b506104fe60048036038101906104f99190612c02565b61118e565b60405161050b919061320f565b60405180910390f35b61052e60048036038101906105299190612c02565b6112a1565b005b34801561053c57600080fd5b5061055760048036038101906105529190612bc1565b6115c3565b6040516105649190613451565b60405180910390f35b34801561057957600080fd5b50610594600480360381019061058f91906129f1565b61160a565b6040516105a191906131f4565b60405180910390f35b6000634906490660e01b7bffffffffffffffffffffffffffffffffffffffffffffffffffffffff1916827bffffffffffffffffffffffffffffffffffffffffffffffffffffffff1916148061060457506106038261169e565b5b9050919050565b606061061633610d3d565b67ffffffffffffffff811115610655577f4e487b7100000000000000000000000000000000000000000000000000000000600052604160045260246000fd5b6040519080825280602002602001820160405280156106835781602001602082028036833780820191505090505b509050600080600754905060005b81811015610755573373ffffffffffffffffffffffffffffffffffffffff166106c56001836106c09190613651565b610cb6565b73ffffffffffffffffffffffffffffffffffffffff161415610742576001816106ee9190613651565b848481518110610727577f4e487b7100000000000000000000000000000000000000000000000000000000600052603260045260246000fd5b602002602001018181525050828061073e906137e4565b9350505b808061074d906137e4565b915050610691565b50505090565b60606000805461076a90613781565b80601f016020809104026020016040519081016040528092919081815260200182805461079690613781565b80156107e35780601f106107b8576101008083540402835291602001916107e3565b820191906000526020600020905b8154815290600101906020018083116107c657829003601f168201915b5050505050905090565b60006107f882611780565b6004600083815260200190815260200160002060009054906101000a900473ffffffffffffffffffffffffffffffffffffffff169050919050565b600061083e82610cb6565b90508073ffffffffffffffffffffffffffffffffffffffff168373ffffffffffffffffffffffffffffffffffffffff1614156108af576040517f08c379a00000000000000000000000000000000000000000000000000000000081526004016108a6906133d1565b60405180910390fd5b8073ffffffffffffffffffffffffffffffffffffffff166108ce6117cb565b73ffffffffffffffffffffffffffffffffffffffff1614806108fd57506108fc816108f76117cb565b61160a565b5b61093c576040517f08c379a000000000000000000000000000000000000000000000000000000000815260040161093390613431565b60405180910390fd5b61094683836117d3565b505050565b600960205280600052604060002060009150905080600001549080600101805461097490613781565b80601f01602080910402602001604051908101604052809291908181526020018280546109a090613781565b80156109ed5780601f106109c2576101008083540402835291602001916109ed565b820191906000526020600020905b8154815290600101906020018083116109d057829003601f168201915b5050505050908060020154908060030160009054906101000a900473ffffffffffffffffffffffffffffffffffffffff16905084565b60085481565b610a3a610a346117cb565b8261188c565b610a79576040517f08c379a0000000000000000000000000000000000000000000000000000000008152600401610a7090613231565b60405180910390fd5b610a84838383611921565b505050565b606060085467ffffffffffffffff811115610acd577f4e487b7100000000000000000000000000000000000000000000000000000000600052604160045260246000fd5b604051908082528060200260200182016040528015610b0657816020015b610af36127ae565b815260200190600190039081610aeb5790505b50905060005b8151811015610c925760096000600183610b269190613651565b815260200190815260200160002060405180608001604052908160008201548152602001600182018054610b5990613781565b80601f0160208091040260200160405190810160405280929190818152602001828054610b8590613781565b8015610bd25780601f10610ba757610100808354040283529160200191610bd2565b820191906000526020600020905b815481529060010190602001808311610bb557829003601f168201915b50505050508152602001600282015481526020016003820160009054906101000a900473ffffffffffffffffffffffffffffffffffffffff1673ffffffffffffffffffffffffffffffffffffffff1673ffffffffffffffffffffffffffffffffffffffff1681525050828281518110610c74577f4e487b7100000000000000000000000000000000000000000000000000000000600052603260045260246000fd5b60200260200101819052508080610c8a906137e4565b915050610b0c565b5090565b610cb183838360405180602001604052806000815250610f60565b505050565b600080610cc283611c1b565b9050600073ffffffffffffffffffffffffffffffffffffffff168173ffffffffffffffffffffffffffffffffffffffff161415610d34576040517f08c379a0000000000000000000000000000000000000000000000000000000008152600401610d2b906133b1565b60405180910390fd5b80915050919050565b60008073ffffffffffffffffffffffffffffffffffffffff168273ffffffffffffffffffffffffffffffffffffffff161415610dae576040517f08c379a0000000000000000000000000000000000000000000000000000000008152600401610da590613311565b60405180910390fd5b600360008373ffffffffffffffffffffffffffffffffffffffff1673ffffffffffffffffffffffffffffffffffffffff168152602001908152602001600020549050919050565b3373ffffffffffffffffffffffffffffffffffffffff16610e1582610cb6565b73ffffffffffffffffffffffffffffffffffffffff1614610e6b576040517f08c379a0000000000000000000000000000000000000000000000000000000008152600401610e62906133f1565b60405180910390fd5b80600a60003373ffffffffffffffffffffffffffffffffffffffff1673ffffffffffffffffffffffffffffffffffffffff1681526020019081526020016000208190555050565b606060018054610ec190613781565b80601f0160208091040260200160405190810160405280929190818152602001828054610eed90613781565b8015610f3a5780601f10610f0f57610100808354040283529160200191610f3a565b820191906000526020600020905b815481529060010190602001808311610f1d57829003601f168201915b5050505050905090565b60075481565b610f5c610f556117cb565b8383611c58565b5050565b610f71610f6b6117cb565b8361188c565b610fb0576040517f08c379a0000000000000000000000000000000000000000000000000000000008152600401610fa790613231565b60405180910390fd5b610fbc84848484611dc5565b50505050565b600a6020528060005260406000206000915090505481565b6000610fe533610d3d565b11611025576040517f08c379a000000000000000000000000000000000000000000000000000000000815260040161101c90613251565b60405180910390fd5b6000815111611069576040517f08c379a000000000000000000000000000000000000000000000000000000000815260040161106090613391565b60405180910390fd5b6008600081548092919061107c906137e4565b919050555060405180608001604052806008548152602001828152602001600081526020013373ffffffffffffffffffffffffffffffffffffffff168152506009600060085481526020019081526020016000206000820151816000015560208201518160010190805190602001906110f69291906127ec565b506040820151816002015560608201518160030160006101000a81548173ffffffffffffffffffffffffffffffffffffffff021916908373ffffffffffffffffffffffffffffffffffffffff1602179055509050507fc66336337a24e513f909b3b25119854dba8385d51307dbc7d31d1b2805e19c7e60085482600033604051611183949392919061346c565b60405180910390a150565b606061119982611780565b60006006600084815260200190815260200160002080546111b990613781565b80601f01602080910402602001604051908101604052809291908181526020018280546111e590613781565b80156112325780601f1061120757610100808354040283529160200191611232565b820191906000526020600020905b81548152906001019060200180831161121557829003601f168201915b505050505090506000611243611e21565b905060008151141561125957819250505061129c565b60008251111561128e578082604051602001611276929190613125565b6040516020818303038152906040529250505061129c565b61129784611e38565b925050505b919050565b6000811180156112b357506008548111155b6112f2576040517f08c379a00000000000000000000000000000000000000000000000000000000081526004016112e990613351565b60405180910390fd5b6000600960008381526020019081526020016000206040518060800160405290816000820154815260200160018201805461132c90613781565b80601f016020809104026020016040519081016040528092919081815260200182805461135890613781565b80156113a55780601f1061137a576101008083540402835291602001916113a5565b820191906000526020600020905b81548152906001019060200180831161138857829003601f168201915b50505050508152602001600282015481526020016003820160009054906101000a900473ffffffffffffffffffffffffffffffffffffffff1673ffffffffffffffffffffffffffffffffffffffff1673ffffffffffffffffffffffffffffffffffffffff168152505090503373ffffffffffffffffffffffffffffffffffffffff16816060015173ffffffffffffffffffffffffffffffffffffffff161415611483576040517f08c379a000000000000000000000000000000000000000000000000000000000815260040161147a90613411565b60405180910390fd5b806060015173ffffffffffffffffffffffffffffffffffffffff166108fc349081150290604051600060405180830381858888f193505050501580156114cd573d6000803e3d6000fd5b5034816040018181516114e09190613651565b9150818152505080600960008481526020019081526020016000206000820151816000015560208201518160010190805190602001906115219291906127ec565b506040820151816002015560608201518160030160006101000a81548173ffffffffffffffffffffffffffffffffffffffff021916908373ffffffffffffffffffffffffffffffffffffffff1602179055509050507f20988fe475351e75813672abada1dddb7ac67cbbeb81e61e1160b8329d8cdf1c828260200151836040015184606001516040516115b794939291906134b8565b60405180910390a15050565b6000600760008154809291906115d8906137e4565b91905055506115e933600754611ea0565b6115f560075483611ebe565b611600600754610df5565b6007549050919050565b6000600560008473ffffffffffffffffffffffffffffffffffffffff1673ffffffffffffffffffffffffffffffffffffffff16815260200190815260200160002060008373ffffffffffffffffffffffffffffffffffffffff1673ffffffffffffffffffffffffffffffffffffffff16815260200190815260200160002060009054906101000a900460ff16905092915050565b60007f80ac58cd000000000000000000000000000000000000000000000000000000007bffffffffffffffffffffffffffffffffffffffffffffffffffffffff1916827bffffffffffffffffffffffffffffffffffffffffffffffffffffffff1916148061176957507f5b5e139f000000000000000000000000000000000000000000000000000000007bffffffffffffffffffffffffffffffffffffffffffffffffffffffff1916827bffffffffffffffffffffffffffffffffffffffffffffffffffffffff1916145b80611779575061177882611f69565b5b9050919050565b61178981611fd3565b6117c8576040517f08c379a00000000000000000000000000000000000000000000000000000000081526004016117bf906133b1565b60405180910390fd5b50565b600033905090565b816004600083815260200190815260200160002060006101000a81548173ffffffffffffffffffffffffffffffffffffffff021916908373ffffffffffffffffffffffffffffffffffffffff160217905550808273ffffffffffffffffffffffffffffffffffffffff1661184683610cb6565b73ffffffffffffffffffffffffffffffffffffffff167f8c5be1e5ebec7d5bd14f71427d1e84f3dd0314c0f7b2291e5b200ac8c7c3b92560405160405180910390a45050565b60008061189883610cb6565b90508073ffffffffffffffffffffffffffffffffffffffff168473ffffffffffffffffffffffffffffffffffffffff1614806118da57506118d9818561160a565b5b8061191857508373ffffffffffffffffffffffffffffffffffffffff16611900846107ed565b73ffffffffffffffffffffffffffffffffffffffff16145b91505092915050565b8273ffffffffffffffffffffffffffffffffffffffff1661194182610cb6565b73ffffffffffffffffffffffffffffffffffffffff1614611997576040517f08c379a000000000000000000000000000000000000000000000000000000000815260040161198e90613291565b60405180910390fd5b600073ffffffffffffffffffffffffffffffffffffffff168273ffffffffffffffffffffffffffffffffffffffff161415611a07576040517f08c379a00000000000000000000000000000000000000000000000000000000081526004016119fe906132d1565b60405180910390fd5b611a148383836001612014565b8273ffffffffffffffffffffffffffffffffffffffff16611a3482610cb6565b73ffffffffffffffffffffffffffffffffffffffff1614611a8a576040517f08c379a0000000000000000000000000000000000000000000000000000000008152600401611a8190613291565b60405180910390fd5b6004600082815260200190815260200160002060006101000a81549073ffffffffffffffffffffffffffffffffffffffff02191690556001600360008573ffffffffffffffffffffffffffffffffffffffff1673ffffffffffffffffffffffffffffffffffffffff168152602001908152602001600020600082825403925050819055506001600360008473ffffffffffffffffffffffffffffffffffffffff1673ffffffffffffffffffffffffffffffffffffffff16815260200190815260200160002060008282540192505081905550816002600083815260200190815260200160002060006101000a81548173ffffffffffffffffffffffffffffffffffffffff021916908373ffffffffffffffffffffffffffffffffffffffff160217905550808273ffffffffffffffffffffffffffffffffffffffff168473ffffffffffffffffffffffffffffffffffffffff167fddf252ad1be2c89b69c2b068fc378daa952ba7f163c4a11628f55a4df523b3ef60405160405180910390a4611c16838383600161201a565b505050565b60006002600083815260200190815260200160002060009054906101000a900473ffffffffffffffffffffffffffffffffffffffff169050919050565b8173ffffffffffffffffffffffffffffffffffffffff168373ffffffffffffffffffffffffffffffffffffffff161415611cc7576040517f08c379a0000000000000000000000000000000000000000000000000000000008152600401611cbe906132f1565b60405180910390fd5b80600560008573ffffffffffffffffffffffffffffffffffffffff1673ffffffffffffffffffffffffffffffffffffffff16815260200190815260200160002060008473ffffffffffffffffffffffffffffffffffffffff1673ffffffffffffffffffffffffffffffffffffffff16815260200190815260200160002060006101000a81548160ff0219169083151502179055508173ffffffffffffffffffffffffffffffffffffffff168373ffffffffffffffffffffffffffffffffffffffff167f17307eab39ab6107e8899845ad3d59bd9653f200f220920489ca2b5937696c3183604051611db891906131f4565b60405180910390a3505050565b611dd0848484611921565b611ddc84848484612020565b611e1b576040517f08c379a0000000000000000000000000000000000000000000000000000000008152600401611e1290613271565b60405180910390fd5b50505050565b606060405180602001604052806000815250905090565b6060611e4382611780565b6000611e4d611e21565b90506000815111611e6d5760405180602001604052806000815250611e98565b80611e77846121b7565b604051602001611e88929190613125565b6040516020818303038152906040525b915050919050565b611eba8282604051806020016040528060008152506122db565b5050565b611ec782611fd3565b611f06576040517f08c379a0000000000000000000000000000000000000000000000000000000008152600401611efd90613331565b60405180910390fd5b80600660008481526020019081526020016000209080519060200190611f2d9291906127ec565b507ff8e1a15aba9398e019f0b49df1a4fde98ee17ae345cb5f6b5e2c27f5033e8ce782604051611f5d9190613451565b60405180910390a15050565b60007f01ffc9a7000000000000000000000000000000000000000000000000000000007bffffffffffffffffffffffffffffffffffffffffffffffffffffffff1916827bffffffffffffffffffffffffffffffffffffffffffffffffffffffff1916149050919050565b60008073ffffffffffffffffffffffffffffffffffffffff16611ff583611c1b565b73ffffffffffffffffffffffffffffffffffffffff1614159050919050565b50505050565b50505050565b60006120418473ffffffffffffffffffffffffffffffffffffffff16612336565b156121aa578373ffffffffffffffffffffffffffffffffffffffff1663150b7a0261206a6117cb565b8786866040518563ffffffff1660e01b815260040161208c9493929190613164565b602060405180830381600087803b1580156120a657600080fd5b505af19250505080156120d757506040513d601f19601f820116820180604052508101906120d49190612b98565b60015b61215a573d8060008114612107576040519150601f19603f3d011682016040523d82523d6000602084013e61210c565b606091505b50600081511415612152576040517f08c379a000000000000000000000000000000000000000000000000000000000815260040161214990613271565b60405180910390fd5b805181602001fd5b63150b7a0260e01b7bffffffffffffffffffffffffffffffffffffffffffffffffffffffff1916817bffffffffffffffffffffffffffffffffffffffffffffffffffffffff1916149150506121af565b600190505b949350505050565b6060600060016121c684612359565b01905060008167ffffffffffffffff81111561220b577f4e487b7100000000000000000000000000000000000000000000000000000000600052604160045260246000fd5b6040519080825280601f01601f19166020018201604052801561223d5781602001600182028036833780820191505090505b509050600082602001820190505b6001156122d0578080600190039150507f3031323334353637383961626364656600000000000000000000000000000000600a86061a8153600a85816122ba577f4e487b7100000000000000000000000000000000000000000000000000000000600052601260045260246000fd5b04945060008514156122cb576122d0565b61224b565b819350505050919050565b6122e58383612590565b6122f26000848484612020565b612331576040517f08c379a000000000000000000000000000000000000000000000000000000000815260040161232890613271565b60405180910390fd5b505050565b6000808273ffffffffffffffffffffffffffffffffffffffff163b119050919050565b600080600090507a184f03e93ff9f4daa797ed6e38ed64bf6a1f01000000000000000083106123dd577a184f03e93ff9f4daa797ed6e38ed64bf6a1f01000000000000000083816123d3577f4e487b7100000000000000000000000000000000000000000000000000000000600052601260045260246000fd5b0492506040810190505b6d04ee2d6d415b85acef81000000008310612440576d04ee2d6d415b85acef81000000008381612436577f4e487b7100000000000000000000000000000000000000000000000000000000600052601260045260246000fd5b0492506020810190505b662386f26fc10000831061249557662386f26fc10000838161248b577f4e487b7100000000000000000000000000000000000000000000000000000000600052601260045260246000fd5b0492506010810190505b6305f5e10083106124e4576305f5e10083816124da577f4e487b7100000000000000000000000000000000000000000000000000000000600052601260045260246000fd5b0492506008810190505b612710831061252f576127108381612525577f4e487b7100000000000000000000000000000000000000000000000000000000600052601260045260246000fd5b0492506004810190505b60648310612578576064838161256e577f4e487b7100000000000000000000000000000000000000000000000000000000600052601260045260246000fd5b0492506002810190505b600a8310612587576001810190505b80915050919050565b600073ffffffffffffffffffffffffffffffffffffffff168273ffffffffffffffffffffffffffffffffffffffff161415612600576040517f08c379a00000000000000000000000000000000000000000000000000000000081526004016125f790613371565b60405180910390fd5b61260981611fd3565b15612649576040517f08c379a0000000000000000000000000000000000000000000000000000000008152600401612640906132b1565b60405180910390fd5b612657600083836001612014565b61266081611fd3565b156126a0576040517f08c379a0000000000000000000000000000000000000000000000000000000008152600401612697906132b1565b60405180910390fd5b6001600360008473ffffffffffffffffffffffffffffffffffffffff1673ffffffffffffffffffffffffffffffffffffffff16815260200190815260200160002060008282540192505081905550816002600083815260200190815260200160002060006101000a81548173ffffffffffffffffffffffffffffffffffffffff021916908373ffffffffffffffffffffffffffffffffffffffff160217905550808273ffffffffffffffffffffffffffffffffffffffff16600073ffffffffffffffffffffffffffffffffffffffff167fddf252ad1be2c89b69c2b068fc378daa952ba7f163c4a11628f55a4df523b3ef60405160405180910390a46127aa60008383600161201a565b5050565b6040518060800160405280600081526020016060815260200160008152602001600073ffffffffffffffffffffffffffffffffffffffff1681525090565b8280546127f890613781565b90600052602060002090601f01602090048101928261281a5760008555612861565b82601f1061283357805160ff1916838001178555612861565b82800160010185558215612861579182015b82811115612860578251825591602001919060010190612845565b5b50905061286e9190612872565b5090565b5b8082111561288b576000816000905550600101612873565b5090565b60006128a261289d84613529565b613504565b9050828152602081018484840111156128ba57600080fd5b6128c584828561373f565b509392505050565b60006128e06128db8461355a565b613504565b9050828152602081018484840111156128f857600080fd5b61290384828561373f565b509392505050565b60008135905061291a81613cda565b92915050565b60008135905061292f81613cf1565b92915050565b60008135905061294481613d08565b92915050565b60008151905061295981613d08565b92915050565b600082601f83011261297057600080fd5b813561298084826020860161288f565b91505092915050565b600082601f83011261299a57600080fd5b81356129aa8482602086016128cd565b91505092915050565b6000813590506129c281613d1f565b92915050565b6000602082840312156129da57600080fd5b60006129e88482850161290b565b91505092915050565b60008060408385031215612a0457600080fd5b6000612a128582860161290b565b9250506020612a238582860161290b565b9150509250929050565b600080600060608486031215612a4257600080fd5b6000612a508682870161290b565b9350506020612a618682870161290b565b9250506040612a72868287016129b3565b9150509250925092565b60008060008060808587031215612a9257600080fd5b6000612aa08782880161290b565b9450506020612ab18782880161290b565b9350506040612ac2878288016129b3565b925050606085013567ffffffffffffffff811115612adf57600080fd5b612aeb8782880161295f565b91505092959194509250565b60008060408385031215612b0a57600080fd5b6000612b188582860161290b565b9250506020612b2985828601612920565b9150509250929050565b60008060408385031215612b4657600080fd5b6000612b548582860161290b565b9250506020612b65858286016129b3565b9150509250929050565b600060208284031215612b8157600080fd5b6000612b8f84828501612935565b91505092915050565b600060208284031215612baa57600080fd5b6000612bb88482850161294a565b91505092915050565b600060208284031215612bd357600080fd5b600082013567ffffffffffffffff811115612bed57600080fd5b612bf984828501612989565b91505092915050565b600060208284031215612c1457600080fd5b6000612c22848285016129b3565b91505092915050565b6000612c3783836130a4565b905092915050565b6000612c4b8383613107565b60208301905092915050565b612c60816136b9565b82525050565b612c6f816136b9565b82525050565b612c7e816136a7565b82525050565b6000612c8f826135ab565b612c9981856135f1565b935083602082028501612cab8561358b565b8060005b85811015612ce75784840389528151612cc88582612c2b565b9450612cd3836135d7565b925060208a01995050600181019050612caf565b50829750879550505050505092915050565b6000612d04826135b6565b612d0e8185613602565b9350612d198361359b565b8060005b83811015612d4a578151612d318882612c3f565b9750612d3c836135e4565b925050600181019050612d1d565b5085935050505092915050565b612d60816136cb565b82525050565b6000612d71826135c1565b612d7b8185613613565b9350612d8b81856020860161374e565b612d94816138ba565b840191505092915050565b612da88161372d565b82525050565b6000612db9826135cc565b612dc38185613624565b9350612dd381856020860161374e565b612ddc816138ba565b840191505092915050565b6000612df2826135cc565b612dfc8185613635565b9350612e0c81856020860161374e565b612e15816138ba565b840191505092915050565b6000612e2b826135cc565b612e358185613646565b9350612e4581856020860161374e565b80840191505092915050565b6000612e5e602d83613635565b9150612e69826138cb565b604082019050919050565b6000612e81601683613635565b9150612e8c8261391a565b602082019050919050565b6000612ea4603283613635565b9150612eaf82613943565b604082019050919050565b6000612ec7602583613635565b9150612ed282613992565b604082019050919050565b6000612eea601c83613635565b9150612ef5826139e1565b602082019050919050565b6000612f0d602483613635565b9150612f1882613a0a565b604082019050919050565b6000612f30601983613635565b9150612f3b82613a59565b602082019050919050565b6000612f53602983613635565b9150612f5e82613a82565b604082019050919050565b6000612f76602e83613635565b9150612f8182613ad1565b604082019050919050565b6000612f99600f83613635565b9150612fa482613b20565b602082019050919050565b6000612fbc602083613635565b9150612fc782613b49565b602082019050919050565b6000612fdf601983613635565b9150612fea82613b72565b602082019050919050565b6000613002601883613635565b915061300d82613b9b565b602082019050919050565b6000613025602183613635565b915061303082613bc4565b604082019050919050565b6000613048603383613635565b915061305382613c13565b604082019050919050565b600061306b601883613635565b915061307682613c62565b602082019050919050565b600061308e603d83613635565b915061309982613c8b565b604082019050919050565b60006080830160008301516130bc6000860182613107565b50602083015184820360208601526130d48282612dae565b91505060408301516130e96040860182613107565b5060608301516130fc6060860182612c57565b508091505092915050565b61311081613723565b82525050565b61311f81613723565b82525050565b60006131318285612e20565b915061313d8284612e20565b91508190509392505050565b600060208201905061315e6000830184612c75565b92915050565b60006080820190506131796000830187612c75565b6131866020830186612c75565b6131936040830185613116565b81810360608301526131a58184612d66565b905095945050505050565b600060208201905081810360008301526131ca8184612c84565b905092915050565b600060208201905081810360008301526131ec8184612cf9565b905092915050565b60006020820190506132096000830184612d57565b92915050565b600060208201905081810360008301526132298184612de7565b905092915050565b6000602082019050818103600083015261324a81612e51565b9050919050565b6000602082019050818103600083015261326a81612e74565b9050919050565b6000602082019050818103600083015261328a81612e97565b9050919050565b600060208201905081810360008301526132aa81612eba565b9050919050565b600060208201905081810360008301526132ca81612edd565b9050919050565b600060208201905081810360008301526132ea81612f00565b9050919050565b6000602082019050818103600083015261330a81612f23565b9050919050565b6000602082019050818103600083015261332a81612f46565b9050919050565b6000602082019050818103600083015261334a81612f69565b9050919050565b6000602082019050818103600083015261336a81612f8c565b9050919050565b6000602082019050818103600083015261338a81612faf565b9050919050565b600060208201905081810360008301526133aa81612fd2565b9050919050565b600060208201905081810360008301526133ca81612ff5565b9050919050565b600060208201905081810360008301526133ea81613018565b9050919050565b6000602082019050818103600083015261340a8161303b565b9050919050565b6000602082019050818103600083015261342a8161305e565b9050919050565b6000602082019050818103600083015261344a81613081565b9050919050565b60006020820190506134666000830184613116565b92915050565b60006080820190506134816000830187613116565b81810360208301526134938186612de7565b90506134a26040830185612d9f565b6134af6060830184612c66565b95945050505050565b60006080820190506134cd6000830187613116565b81810360208301526134df8186612de7565b90506134ee6040830185613116565b6134fb6060830184612c66565b95945050505050565b600061350e61351f565b905061351a82826137b3565b919050565b6000604051905090565b600067ffffffffffffffff8211156135445761354361388b565b5b61354d826138ba565b9050602081019050919050565b600067ffffffffffffffff8211156135755761357461388b565b5b61357e826138ba565b9050602081019050919050565b6000819050602082019050919050565b6000819050602082019050919050565b600081519050919050565b600081519050919050565b600081519050919050565b600081519050919050565b6000602082019050919050565b6000602082019050919050565b600082825260208201905092915050565b600082825260208201905092915050565b600082825260208201905092915050565b600082825260208201905092915050565b600082825260208201905092915050565b600081905092915050565b600061365c82613723565b915061366783613723565b9250827fffffffffffffffffffffffffffffffffffffffffffffffffffffffffffffffff0382111561369c5761369b61382d565b5b828201905092915050565b60006136b282613703565b9050919050565b60006136c482613703565b9050919050565b60008115159050919050565b60007fffffffff0000000000000000000000000000000000000000000000000000000082169050919050565b600073ffffffffffffffffffffffffffffffffffffffff82169050919050565b6000819050919050565b600061373882613723565b9050919050565b82818337600083830152505050565b60005b8381101561376c578082015181840152602081019050613751565b8381111561377b576000848401525b50505050565b6000600282049050600182168061379957607f821691505b602082108114156137ad576137ac61385c565b5b50919050565b6137bc826138ba565b810181811067ffffffffffffffff821117156137db576137da61388b565b5b80604052505050565b60006137ef82613723565b91507fffffffffffffffffffffffffffffffffffffffffffffffffffffffffffffffff8214156138225761382161382d565b5b600182019050919050565b7f4e487b7100000000000000000000000000000000000000000000000000000000600052601160045260246000fd5b7f4e487b7100000000000000000000000000000000000000000000000000000000600052602260045260246000fd5b7f4e487b7100000000000000000000000000000000000000000000000000000000600052604160045260246000fd5b6000601f19601f8301169050919050565b7f4552433732313a2063616c6c6572206973206e6f7420746f6b656e206f776e6560008201527f72206f7220617070726f76656400000000000000000000000000000000000000602082015250565b7f4d757374206f776e2061206e667420746f20706f737400000000000000000000600082015250565b7f4552433732313a207472616e7366657220746f206e6f6e20455243373231526560008201527f63656976657220696d706c656d656e7465720000000000000000000000000000602082015250565b7f4552433732313a207472616e736665722066726f6d20696e636f72726563742060008201527f6f776e6572000000000000000000000000000000000000000000000000000000602082015250565b7f4552433732313a20746f6b656e20616c7265616479206d696e74656400000000600082015250565b7f4552433732313a207472616e7366657220746f20746865207a65726f2061646460008201527f7265737300000000000000000000000000000000000000000000000000000000602082015250565b7f4552433732313a20617070726f766520746f2063616c6c657200000000000000600082015250565b7f4552433732313a2061646472657373207a65726f206973206e6f74206120766160008201527f6c6964206f776e65720000000000000000000000000000000000000000000000602082015250565b7f45524337323155524953746f726167653a2055524920736574206f66206e6f6e60008201527f6578697374656e7420746f6b656e000000000000000000000000000000000000602082015250565b7f496e76616c696420706f73742069640000000000000000000000000000000000600082015250565b7f4552433732313a206d696e7420746f20746865207a65726f2061646472657373600082015250565b7f43616e6e6f74207061737320616e20656d707479206861736800000000000000600082015250565b7f4552433732313a20696e76616c696420746f6b656e2049440000000000000000600082015250565b7f4552433732313a20617070726f76616c20746f2063757272656e74206f776e6560008201527f7200000000000000000000000000000000000000000000000000000000000000602082015250565b7f4d757374206f776e20746865206e667420796f752077616e7420746f2073656c60008201527f65637420617320796f75722070726f66696c6500000000000000000000000000602082015250565b7f43616e6e6f742074697020796f7572206f776e20706f73740000000000000000600082015250565b7f4552433732313a20617070726f76652063616c6c6572206973206e6f7420746f60008201527f6b656e206f776e6572206f7220617070726f76656420666f7220616c6c000000602082015250565b613ce3816136a7565b8114613cee57600080fd5b50565b613cfa816136cb565b8114613d0557600080fd5b50565b613d11816136d7565b8114613d1c57600080fd5b50565b613d2881613723565b8114613d3357600080fd5b5056fea2646970667358221220920ffa628916f6a53ec9ce23b5852a7ea7751e683b40ff2c04cdfab37a21d91464736f6c63430008040033",
  "linkReferences": {},
  "deployedLinkReferences": {}
}